S014000050726F6A6563745F4D6567612E7372656360
S1130000E9C0000007C1000005C1000003C10000F1
S113001001C10000FFC00000FDC00000FBC00000E3
S1130020F9C00000F7C00000F5C00000F3C00000F4
S1130030F1C00000EFC00000EDC00000EBC0000004
S1130040E9C00000DFC20000E5C00000E3C000001A
S1130050E1C00000DFC00000DDC00000DBC0000024
S1130060D9C00000D7C00000D5C00000D3C0000034
S1130070D1C00000CFC00000CDC00000CBC0000044
S1130080B3C20000C7C00000C5C00000C3C0000068
S1130090C1C00000BFC00000BDC00000BBC0000064
S11300A0B9C00000B7C00000B5C00000B3C0000074
S11300B0B1C00000AFC00000ADC00000ABC0000084
S11300C0A9C00000A7C00000A5C00000A3C0000094
S11300D0A1C000009FC000009DC000009BC00000A4
S11300E099C000008001880188018801820188018B
S11300F084018601880188018801880188018801BA
S113010088018801880188018801880188018801A3
S11301108801880188018801880188018801880193
S11301208801880188018801880188018801880183
S11301308801880188018801880188018801880173
S11301408801880188018801880188018801880163
S11301508801880188018801880188018801880153
S11301608801880178018801880188017A01880161
S11301707C017E0188018801880188018801880149
S11301808801880188018801880188018801880123
S11301908801880188018801880188018801880113
S11301A08801880170018801880188017201880131
S11301B07401760188018801880188018801880119
S11301C0880188016A018801880188018A018801FF
S11301D06C016E0111241FBECFEFD1E2DEBFCDBF93
S11301E000E00CBF13E0A0E0B2E0EAE6F3E100E0D7
S11301F00BBF02C007900D92AC36B107D9F723E0CC
S1130200ACE6B3E001C01D92A637B207E1F76FD4A4
S11302100C94B309F5CE20E09FEE10C09093080132
S1130220E9EFF0E03197F1F700C00000809106019A
S11302308F708F3029F4990F9F5F2F5F243070F3F4
S1130240907F890F089580EF8093070108958FE0D0
S113025080930801809106018F708F30C1F789EF78
S113026090E00197F1F700C000008FE0809308014F
S1130270809106018F708F3051F708958FE080933D
S11302800801809106018F708F30C1F389EF90E0EF
S11302900197F1F700C000008FE08093080180917E
S11302A006018F708F3051F30895D1DF89EF90E00C
S11302B00197F1F700C00000E1DFADDF90E0FC0141
S11302C0E757F109E837F10518F58827EE58FF4F8D
S11302D08F4F5EC58AE2089584E3089581E308950B
S11302E080E3089588E3089585E3089582E30895FB
S11302F083E2089589E3089586E3089583E30895E6
S113030084E4089583E4089582E4089581E40895DB
S11303108AE7089587E3089585B1806285B900006E
S113032085B18F7D85B90895CF93C82F662331F0A9
S1130330E2E0F1E080818064808305C0E2E0F1E0E6
S113034080818F7B808385B18F7E85B98DB18061FB
S11303508DB98DB180628DB983B3806283BBE1E0D6
S1130360F1E0808188608083E2E0F1E08081877F32
S1130370808384B38F7D84BB8EB18F7D8EB98EB123
S11303808F7E8EB9CC231CF4808188608083C6FF65
S113039003C084B3806284BBC5FF03C08EB1806296
S11303A08EB9C4FF03C08EB180618EB9B5DFE2E0BF
S11303B0F1E08081877F808384B38F7D84BB8EB19D
S11303C08F7D8EB98EB18F7E8EB9C3FF03C08081BD
S11303D088608083C2FF03C084B3806284BBC1FF92
S11303E003C08EB180628EB9C0FF03C08EB180613C
S11303F08EB992DF8EB180618EB98EB180628EB972
S113040084B3806284BBE2E0F1E080818860808311
S1130410CF910895882331F0E2E0F1E08081806497
S1130420808305C0E2E0F1E080818F7B808385B129
S1130430806185B98DB18F7E8DB98DB18F7D8DB978
S113044083B38F7D83BBE1E0F1E08081877F80838C
S113045085B1806285B90000649902C080E001C062
S113046080E165998062959980649091000193FD83
S1130470806895B19F7D95B9000095B1906295B95A
S11304800000649981606599826095998460909177
S1130490000193FD886095B19F7D95B9089580E032
S11304A0B9DF8823E4F300C000C080E0B3CF08952F
S11304B0CF93C82FF4DF60E08C2F36DFCF910895FF
S11304C0611103C08058F4CF08958054F1CF08958A
S11304D081E0EECF089582E0EBCF0895CF93C82F4B
S11304E0DEDFCA3041F4803410F480E401C080E0DF
S11304F08058DEDF03C061E08C2F16DFCF910895B2
S1130500CF93DF93FC0102C0E9DFFE01EF012196E6
S113051080818111F9CFDF91CF910895CF93C82FB6
S1130520E1E0F1E080818064808384B1806184B9FA
S113053084B1806284B98DB180618DB98DB18062DE
S11305408DB983B3806283BB8081886080838FE9A7
S11305509FE00197F1F700C000008EB180628EB970
S11305608EB180618EB9D8DE81EE94E00197F1F707
S113057000C00000D1DE95E19A95F1F70000CCDED1
S113058085E18A95F1F700008EB18F7E8EB9C4DEC5
S113059095E19A95F1F7000088E28ADF88E088DF28
S11305A097DF86E085DF8C2F83DFCF9108959093CA
S11305B0C5008093C400E1ECF0E080818861808311
S11305C0E2ECF0E080818E60808308959091C00019
S11305D095FFFCCF8093C60008958091C00085FFED
S11305E0FCCF8091C60008951F920F920FB60F9210
S11305F0112410929500109294000F900FBE0F904A
S11306001F9018951F920F920FB60F9211240BB6DC
S11306100F922F933F934F935F936F937F938F9397
S11306209F93AF93BF93EF93FF9352DF54DF84E222
S113063092E066DF2FEF87EA91E6215080409040F8
S1130640E1F700C0000044DF86E392E059DF61E097
S113065080E036DF81E090E090936F0380936E0337
S11306601092850010928400EFE6F0E080818D7F87
S11306708083FF91EF91BF91AF919F918F917F9173
S11306806F915F914F913F912F910F900BBE0F90FF
S11306900FBE0F901F901895F89410928000E1E817
S11306A0F0E0108210928500109284008FEF9FEF8B
S11306B09093890080938800808188608083808102
S11306C085608083EFE6F0E08081826080837894A7
S11306D008958DB188608DB9789410928500109238
S11306E08400EFE6F0E080818D7F8083A1E9B0E0B3
S11306F01C921092950010929400E0E9F0E0808141
S1130700806480838081816080838C9180618C93FC
S1130710E1E7F0E08081826080838BE899E0909348
S11307209900809398000895EF92FF920F931F937E
S1130730CF93DF93CDB7DEB728970FB6F894DEBF1B
S11307400FBECDBF7C011092850010928400EFE6AD
S1130750F0E080818D7F80831A821982FE013396B6
S113076086E0DF011D928A95E9F7B2DE86E392E026
S1130770C7DE61E080E0A4DE00E010E0B5C08CDFFD
S113078094DD20916E0330916F03232B31F010928E
S11307906F0310926E0300E010E0833209F4A4C0EA
S11307A08A3209F4A1C0813409F49EC0823409F468
S11307B09BC08334C1F40115110509F495C061E0AF
S11307C08FEF800F7DDE86E492E09ADE01501109FE
S11307D061E0802F75DE0115110509F085C061E027
S11307E080E06EDE81C0843409F06BC01092850015
S11307F010928400EFE6F0E080818D7F8083DE013B
S11308001196FD0101900020E9F73197EA1BFB0BDB
S11308103597C8F05DDE60E081E052DE88E492E066
S11308206FDE61E081E04CDE87E592E069DEBFEFD8
S11308302BE782E9B15020408040E1F700C000007E
S113084080E090E057C044E050E0BE016F5F7F4F0E
S1130850C701B6D2892BE1F43BDE60E081E030DEF3
S113086088E492E04DDE61E081E02ADE85E692E0F4
S113087047DE109291009FEFA7EAB1E69150A040A5
S1130880B040E1F700C0000023DE81E090E032C018
S11308901FDE60E081E014DE88E492E031DE61E096
S11308A081E00EDE87E592E02BDE2FEF87EA91E60A
S11308B0215080409040E1F700C0000080E090E0CB
S11308C019C0E1E0F0E0EC0FFD1FE00FF11F8083A1
S11308D005DE0F5F1F4FAFEFB1EE24E0A150B04033
S11308E02040E1F700C00000083011050CF447CFA8
S11308F080E090E028960FB6F894DEBF0FBECDBF1F
S1130900DF91CF911F910F91FF90EF900895CF92B7
S1130910DF92EF92FF920F931F93CF93DF93CDB7A4
S1130920DEB728970FB6F894DEBF0FBECDBF7C01AB
S11309301A821982FE01339686E0DF011D928A95A0
S1130940E9F7C6DD83E792E0DBDD61E080E0B8DD56
S113095000E010E0ABC0A9DC833209F4A7C08A32FE
S113096009F4A4C0813409F4A1C0823409F49EC0FE
S11309708334B1F40115110509F498C061E08FEFD7
S1130980800F9EDD86E492E0BBDD61E0802F98DD80
S11309900150110909F08AC061E080E091DD86C050
S11309A0843409F05FC0DE011196FD01019000203E
S11309B0E9F73197EA1BFB0BE430F10509F47BC03E
S11309C0349740F585DD60E081E07ADD81E892E0EE
S11309D097DD61E083E074DD80E992E091DDBFEFB3
S11309E027EA31E6B15020403040E1F700C0000072
S11309F0C7018DDFBC018E010F5F1F4FC801D9D124
S1130A00F80101900020E9F73197E01BF10B3497CE
S1130A1079F755C05DDD60E081E052DD81E892E068
S1130A206FDD61E084E04CDD8BE992E069DD8FEFFE
S1130A3097EAA1E681509040A040E1F700C0000091
S1130A40C70165DFBC018E010F5F1F4FC801B1D123
S1130A50F80101900020E9F73197E01BF10B34977E
S1130A6079F732C09E012F5F3F4F6901F901E00F12
S1130A70F11F808333DD0F5F1F4F3FEF89E698E15D
S1130A80315080409040E1F700C00000F601019031
S1130A900020E9F73197EC19FD09389738F01982ED
S1130AA017DD84EA92E02CDD00E010E00830110547
S1130AB00CF451CF0CC0DE0111967D0108C09E01DB
S1130AC02F5F3F4F790103C0CE0101967C01C7011E
S1130AD028960FB6F894DEBF0FBECDBFDF91CF913D
S1130AE01F910F91FF90EF90DF90CF900895CF93D7
S1130AF0DF93CDB7DEB7E0970FB6F894DEBF0FBE35
S1130B00CDBF85E0ECE1F2E0DE01119601900D929B
S1130B108A95E1F7FE01369683E0DF011D928A95FE
S1130B20E9F710926D0310926C038CE0F7DCD1DDD1
S1130B30CFDC89DB84B1876084B98CB580658CBDDA
S1130B408CB581608CBD87E690E031DDE0E7F3E0B1
S1130B508EE092E09383828380E092E091838083AD
S1130B6080916C0390916D0381309105B1F11CF477
S1130B70892B49F0F5CF8230910509F483C003979E
S1130B8009F4DDC0EDCFA4DC60E081E099DC85EB05
S1130B9092E0B6DC61E081E093DC83EC92E0B0DCCF
S1130BA084DB8A3239F481E090E090936D03809382
S1130BB06C03D6CF833239F482E090E090936D03D6
S1130BC080936C03CDCFBFEF21EE34E0B1502040D1
S1130BD03040E1F700C00000C3CF7ADC60E082E07F
S1130BE06FDC82ED92E08CDC198685B18E7F85B94D
S1130BF080E020C0082E000C990BEDE1F0E0EC0F32
S1130C00FD1FE80FF91F30813EBDAAE1AA95F1F757
S1130C1000C00DB407FEFDCFBAE1BA95F1F700C0EC
S1130C203EB5E9E0F0E0EC0FFD1FE80FF91F30835B
S1130C3081E0820F282F8431E8F285B1816085B983
S1130C408E01075F1F4F1F930F93C8D08AE090E077
S1130C50D8D06FED72E0C801A3D00F900F90892B0C
S1130C6039F483E090E090936D0380936C0378CF24
S1130C702FEF39E688E1215030408040E1F700C091
S1130C800000B3CF25DC81EF92E03ADC61E080E044
S1130C9017DC80E093E034DC9FEFA7EAB1E69150E3
S1130CA0A040B040E1F700C00000CE0101963CDD59
S1130CB0892B39F483E090E090936D0380936C0367
S1130CC04FCF06DC80E193E01BDC61E080E0F8DBE1
S1130CD08CE193E015DC2FEF37EA81E621503040B8
S1130CE08040E1F700C00000E0DA8134F9F4CE017D
S1130CF001960DDEBC01CE0101965BD0E9DB88E2F2
S1130D0093E0FEDB61E080E0DBDB89E393E0F8DB8A
S1130D109FEFA7EAB1E69150A040B040E1F700C0D0
S1130D20000010926D0310926C031ACF823429F4E0
S1130D3010926D0310926C0313CFCADB11CFC8DB82
S1130D408AE493E0DDDB61E080E0BADB8AE593E0EE
S1130D50D7DBE1E9F0E0808180618083808181607C
S1130D608083A3DA8332A9F7CE010196DDDC892BD7
S1130D7051F4CE010196D8DC0197D9F710926D0396
S1130D8010926C03EDCE10926D0310926C03E8CEBA
S1130D90EE0FFF1F881F8BBF0790F691E02D19946B
S1130DA0FB01DC018D91019080190110D9F3990B9D
S1130DB00895FB01DC0101900D920020E1F70895F4
S1130DC0FB01DC014150504030F08D9101908019BD
S1130DD019F40020B9F7881B990B0895CF93DF937A
S1130DE0CDB7DEB7AE014A5F5F4FFA0161917191F1
S1130DF0AF01809172039091730308D0DF91CF917A
S1130E000895609172037091730313C22F923F92FD
S1130E104F925F926F927F928F929F92AF92BF9206
S1130E20CF92DF92EF92FF920F931F93CF93DF93B2
S1130E30CDB7DEB72B970FB6F894DEBF0FBECDBF8C
S1130E406C017B018A01FC0117821682838181FF78
S1130E50BFC1CE0101963C01F6019381F70193FDD8
S1130E60859193FF81917F01882309F4ADC1853277
S1130E7039F493FD859193FF81917F01853221F4AB
S1130E80B60190E0D6D1E8CF912C212C312CFFE192
S1130E90F315D8F08B3279F038F4803279F083325C
S1130EA0A1F4232D20611DC08D3261F0803369F4DB
S1130EB0232D216016C0832D8260382EE32DE4603B
S1130EC03E2E2AC0F32DF8601DC037FC2DC020ED46
S1130ED0280F2A3040F08E32B9F436FC75C1232D28
S1130EE02064322E19C036FE06C08AE0989E200D7A
S1130EF01124922E11C0EAE02E9E200D1124222EE0
S1130F00F32DF0623F2E08C08C3621F4832D8068C7
S1130F10382E02C0883641F4F70193FD859193FF82
S1130F2081917F018111B3CF982F9F7D9554933088
S1130F3028F40C5F1F4F9FE399830DC0833631F073
S1130F40833771F0833509F055C020C0F8018081E2
S1130F5089830E5F1F4F88248394912C530112C000
S1130F602801F2E04F0E511CF801A080B18036FE3A
S1130F7003C0692D70E002C06FEF7FEFC5014ED151
S1130F804C018201F32DFF773F2E15C0280122E08A
S1130F90420E511CF801A080B18036FE03C0692DB9
S1130FA070E002C06FEF7FEFC5012DD14C01F32D2E
S1130FB0F0683F2E820133FC19C0822D90E0881620
S1130FC09906A0F4B60180E290E033D12A94F5CFDB
S1130FD0F50137FC859137FE81915F01B60190E000
S1130FE028D121102A9421E0821A910881149104B5
S1130FF079F7E1C0843611F0893639F5F80137FE06
S113100007C060817181828193810C5F1F4F08C08A
S113101060817181072E000C880B990B0E5F1F4FA6
S1131020F32DFF763F2E97FF09C09095809570951C
S113103061957F4F8F4F9F4FF0683F2E2AE030E03D
S1131040A30133D1882E861844C0853731F4232D6B
S11310502F7EB22E2AE030E025C0932D997FB92E41
S11310608F36C1F018F4883579F0AEC0803719F0A6
S1131070883721F0A9C0E92FE061BE2EB4FE0DC06F
S1131080FB2DF460BF2E09C034FE0AC0292F266050
S1131090B22E06C028E030E005C020E130E002C0F6
S11310A020E132E0F801B7FE07C0608171818281DE
S11310B093810C5F1F4F06C06081718180E090E0D6
S11310C00E5F1F4FA301F1D0882E8618FB2DFF77EA
S11310D03F2E36FE0DC0232D2E7FA22E891458F4E8
S11310E034FE0BC032FC09C0832D8E7EA82E05C0B1
S11310F0B82CA32C03C0B82C01C0B92CA4FE0FC07B
S1131100FE01E80DF11D8081803321F49A2D997E32
S1131110A92E09C0A2FE06C0B394B39404C08A2DBC
S1131120867809F0B394A3FC10C0A0FE06C0B214E4
S113113080F4280C922C9B180DC0B21458F4B601FC
S113114080E290E076D0B394F8CFB21418F42B1860
S113115002C0982C212CA4FE0FC0B60180E390E0BD
S113116068D0A2FE16C0A1FC03C088E790E002C0CC
S113117088E590E0B6010CC08A2D867851F0A1FE76
S113118002C08BE201C080E2A7FC8DE2B60190E0D0
S113119050D0891430F4B60180E390E04AD09A9498
S11311A0F8CF8A94F301E80DF11D8081B60190E037
S11311B040D08110F6CF222009F44ECEB60180E251
S11311C090E037D02A94F7CFF6018681978102C048
S11311D08FEF9FEF2B960FB6F894DEBF0FBECDBFF7
S11311E0DF91CF911F910F91FF90EF90DF90CF90FF
S11311F0BF90AF909F908F907F906F905F904F9033
S11312003F902F900895FC010590615070400110AB
S1131210D8F7809590958E0F9F1F0895FC0161501B
S1131220704001900110D8F7809590958E0F9F1F04
S113123008950F931F93CF93DF93FB01238121FD27
S113124003C08FEF9FEF2CC022FF16C04681578149
S1131250248135814217530744F4A081B1819D0153
S11312602F5F3F4F318320838C93268137812F5FFB
S11312703F4F3783268314C08B01EC01FB010084AC
S1131280F185E02D1995892BE1F6D80116968D91FB
S11312909C911797019617969C938E931697CE015F
S11312A0DF91CF911F910F910895FA01AA27283059
S11312B051F1203181F1E8946F936E7F6E5F7F4F1F
S11312C08F4F9F4FAF4FB1E03ED0B4E03CD0670F9B
S11312D0781F891F9A1FA11D680F791F8A1F911DEE
S11312E0A11D6A0F711D811D911DA11D20D009F43E
S11312F068943F912AE0269F11243019305D319380
S1131300DEF6CF010895462F4770405D4193B3E068
S11313100FD0C9F7F6CF462F4F70405D4A3318F00F
S1131320495D31FD4052419302D0A9F7EACFB4E0C0
S1131330A6959795879577956795BA95C9F7009778
S11313406105710508959B01AC010A2E0694579519
S1131350479537952795BA95C9F7620F731F841F70
S10D1360951FA01D0895F894FFCF17
S113136A00000001000000000000ED02000000007F
S113137A000200000000E6020000000031323334AB
S113138A0000000054696D656F7574206F6363759E
S113139A727265642100456E7465722050617373BC
S11313AA776F72643A002000476976656E2050614F
S11313BA7373776F7264002A20494E434F52524521
S11313CA4354202A002A2A20434F52524543542088
S11313DA2A2A004E65772050617373776F72643AD4
S11313EA002A2A2050617373776F7264202A2A00B4
S11313FA546F6F202053686F727400546F6F204CBF
S113140A6F6E67005072657373204420746F207284
S113141A65736574002A20414C41524D204F46465B
S113142A202A005072657373202A20746F20617217
S113143A6D002A20414C41524D204F4E202A006D06
S113144A6F76656D656E745F6465746563746564EF
S113145A005265646972656374696E6720746F000B
S113146A4368616E67652050617373776F726400B5
S113147A4120746F206368616E6765004220746F4F
S113148A2063616E63656C0050617373776F726475
S113149A206368616E67653A002A2A2053554343DC
S11314AA45535346554C202A2A00416C61726D20DB
S11314BA6973206163746976650050726573732079
S10F14CA23202D2044697361726D000022
S9030000FC
